:100000000C9434000C943E000C943E000C943E0082
:100010000C943E000C943E000C943E000C943E0068
:100020000C943E000C943E000C943E000C943E0058
:100030000C943E000C943E000C943E000C943E0048
:100040000C943E000C943E000C943E000C943E0038
:100050000C943E000C943E000C943E000C943E0028
:100060000C943E000C943E0011241FBECFEFD8E04C
:10007000DEBFCDBF0E9440000C9454000C940000E1
:10008000389A20E931E0409A80E197E2F90131970E
:10009000F1F70197D9F7409880E197E2F90131979C
:0C00A000F1F70197D9F7EFCFF894FFCFEC
:00000001FF
